{
  "contractName": "funding",
  "abi": [
    {
      "inputs": [
        {
          "internalType": "uint256",
          "name": "_startTime",
          "type": "uint256"
        },
        {
          "internalType": "uint256",
          "name": "_endTime",
          "type": "uint256"
        },
        {
          "internalType": "uint256",
          "name": "_fundingAmount",
          "type": "uint256"
        },
        {
          "internalType": "uint256",
          "name": "_fundingGoal",
          "type": "uint256"
        }
      ],
      "payable": true,
      "stateMutability": "payable",
      "type": "constructor"
    },
    {
      "anonymous": false,
      "inputs": [
        {
          "indexed": true,
          "internalType": "address",
          "name": "investor",
          "type": "address"
        },
        {
          "indexed": false,
          "internalType": "uint256",
          "name": "value",
          "type": "uint256"
        }
      ],
      "name": "LogInvestment",
      "type": "event"
    },
    {
      "anonymous": false,
      "inputs": [
        {
          "indexed": true,
          "internalType": "address",
          "name": "previousOwner",
          "type": "address"
        },
        {
          "indexed": true,
          "internalType": "address",
          "name": "newOwner",
          "type": "address"
        }
      ],
      "name": "OwnershipTransferred",
      "type": "event"
    },
    {
      "anonymous": false,
      "inputs": [
        {
          "indexed": false,
          "internalType": "address",
          "name": "investor",
          "type": "address"
        },
        {
          "indexed": false,
          "internalType": "uint256",
          "name": "value",
          "type": "uint256"
        }
      ],
      "name": "Refund",
      "type": "event"
    },
    {
      "constant": true,
      "inputs": [],
      "name": "endTime",
      "outputs": [
        {
          "internalType": "uint256",
          "name": "",
          "type": "uint256"
        }
      ],
      "payable": false,
      "stateMutability": "view",
      "type": "function"
    },
    {
      "constant": true,
      "inputs": [],
      "name": "fundingAmount",
      "outputs": [
        {
          "internalType": "uint256",
          "name": "",
          "type": "uint256"
        }
      ],
      "payable": false,
      "stateMutability": "view",
      "type": "function"
    },
    {
      "constant": true,
      "inputs": [],
      "name": "fundingGoal",
      "outputs": [
        {
          "internalType": "uint256",
          "name": "",
          "type": "uint256"
        }
      ],
      "payable": false,
      "stateMutability": "view",
      "type": "function"
    },
    {
      "constant": true,
      "inputs": [],
      "name": "investmentReceived",
      "outputs": [
        {
          "internalType": "uint256",
          "name": "",
          "type": "uint256"
        }
      ],
      "payable": false,
      "stateMutability": "view",
      "type": "function"
    },
    {
      "constant": true,
      "inputs": [],
      "name": "investmentRefunded",
      "outputs": [
        {
          "internalType": "uint256",
          "name": "",
          "type": "uint256"
        }
      ],
      "payable": false,
      "stateMutability": "view",
      "type": "function"
    },
    {
      "constant": true,
      "inputs": [],
      "name": "isFinalized",
      "outputs": [
        {
          "internalType": "bool",
          "name": "",
          "type": "bool"
        }
      ],
      "payable": false,
      "stateMutability": "view",
      "type": "function"
    },
    {
      "constant": true,
      "inputs": [],
      "name": "isRefundingAllowed",
      "outputs": [
        {
          "internalType": "bool",
          "name": "",
          "type": "bool"
        }
      ],
      "payable": false,
      "stateMutability": "view",
      "type": "function"
    },
    {
      "constant": true,
      "inputs": [],
      "name": "owner",
      "outputs": [
        {
          "internalType": "address",
          "name": "",
          "type": "address"
        }
      ],
      "payable": false,
      "stateMutability": "view",
      "type": "function"
    },
    {
      "constant": true,
      "inputs": [
        {
          "internalType": "uint256",
          "name": "",
          "type": "uint256"
        }
      ],
      "name": "participantAddress",
      "outputs": [
        {
          "internalType": "address",
          "name": "",
          "type": "address"
        }
      ],
      "payable": false,
      "stateMutability": "view",
      "type": "function"
    },
    {
      "constant": true,
      "inputs": [],
      "name": "startTime",
      "outputs": [
        {
          "internalType": "uint256",
          "name": "",
          "type": "uint256"
        }
      ],
      "payable": false,
      "stateMutability": "view",
      "type": "function"
    },
    {
      "constant": false,
      "inputs": [
        {
          "internalType": "address",
          "name": "newOwner",
          "type": "address"
        }
      ],
      "name": "transferOwnership",
      "outputs": [],
      "payable": false,
      "stateMutability": "nonpayable",
      "type": "function"
    },
    {
      "constant": true,
      "inputs": [],
      "name": "winner",
      "outputs": [
        {
          "internalType": "address",
          "name": "",
          "type": "address"
        }
      ],
      "payable": false,
      "stateMutability": "view",
      "type": "function"
    },
    {
      "constant": false,
      "inputs": [],
      "name": "invest",
      "outputs": [],
      "payable": true,
      "stateMutability": "payable",
      "type": "function"
    },
    {
      "constant": false,
      "inputs": [],
      "name": "finalize",
      "outputs": [],
      "payable": false,
      "stateMutability": "nonpayable",
      "type": "function"
    },
    {
      "constant": false,
      "inputs": [],
      "name": "drawWinner",
      "outputs": [],
      "payable": false,
      "stateMutability": "nonpayable",
      "type": "function"
    }
  ],
  "bytecode": "0x6080604052604051610a2e380380610a2e8339818101604052608081101561002657600080fd5b8101908080519060200190929190805190602001909291908051906020019092919080519060200190929190505050336000806101000a81548173ffffffffffffffffffffffffffffffffffffffff021916908373ffffffffffffffffffffffffffffffffffffffff160217905550428410156100a257600080fd5b838310156100af57600080fd5b60008214156100bd57600080fd5b60008114156100cb57600080fd5b836003819055508260048190555081600581905550806006819055506000600960006101000a81548160ff02191690831515021790555050505050610919806101156000396000f3fe6080604052600436106100e85760003560e01c80638d4e40831161008a578063cb6f16d411610059578063cb6f16d41461031e578063dfbf53ae1461034d578063e8b5e51f146103a4578063f2fde38b146103ae576100e8565b80638d4e4083146102065780638da5cb5b146102355780639a118aa71461028c578063b2185bb114610307576100e8565b806338ef9380116100c657806338ef93801461016e5780634bb278f31461019957806378e97925146101b05780637a3a0e84146101db576100e8565b806304a79c97146100ed5780631c0a5c10146101185780633197cbb614610143575b600080fd5b3480156100f957600080fd5b506101026103ff565b6040518082815260200191505060405180910390f35b34801561012457600080fd5b5061012d610405565b6040518082815260200191505060405180910390f35b34801561014f57600080fd5b5061015861040b565b6040518082815260200191505060405180910390f35b34801561017a57600080fd5b50610183610411565b6040518082815260200191505060405180910390f35b3480156101a557600080fd5b506101ae610417565b005b3480156101bc57600080fd5b506101c56104cc565b6040518082815260200191505060405180910390f35b3480156101e757600080fd5b506101f06104d2565b6040518082815260200191505060405180910390f35b34801561021257600080fd5b5061021b6104d8565b604051808215151515815260200191505060405180910390f35b34801561024157600080fd5b5061024a6104eb565b604051808273ffffffffffffffffffffffffffffffffffffffff1673ffffffffffffffffffffffffffffffffffffffff16815260200191505060405180910390f35b34801561029857600080fd5b506102c5600480360360208110156102af57600080fd5b8101908080359060200190929190505050610510565b604051808273ffffffffffffffffffffffffffffffffffffffff1673ffffffffffffffffffffffffffffffffffffffff16815260200191505060405180910390f35b34801561031357600080fd5b5061031c61054c565b005b34801561032a57600080fd5b50610333610679565b604051808215151515815260200191505060405180910390f35b34801561035957600080fd5b5061036261068c565b604051808273ffffffffffffffffffffffffffffffffffffffff1673ffffffffffffffffffffffffffffffffffffffff16815260200191505060405180910390f35b6103ac6106b2565b005b3480156103ba57600080fd5b506103fd600480360360208110156103d157600080fd5b81019080803573ffffffffffffffffffffffffffffffffffffffff16906020019092919050505061074c565b005b60055481565b60075481565b60045481565b60085481565b6000809054906101000a900473ffffffffffffffffffffffffffffffffffffffff1673ffffffffffffffffffffffffffffffffffffffff163373ffffffffffffffffffffffffffffffffffffffff161461047057600080fd5b600960009054906101000a900460ff161561048a57600080fd5b60006004544211905060006006546007541015905081156104c85780156104c7576001600960006101000a81548160ff0219169083151502179055505b5b5050565b60035481565b60065481565b600960009054906101000a900460ff1681565b6000809054906101000a900473ffffffffffffffffffffffffffffffffffffffff1681565b6002818154811061051d57fe5b906000526020600020016000915054906101000a900473ffffffffffffffffffffffffffffffffffffffff1681565b61012c60045401421161055e57600080fd5b600073ffffffffffffffffffffffffffffffffffffffff16600160009054906101000a900473ffffffffffffffffffffffffffffffffffffffff1673ffffffffffffffffffffffffffffffffffffffff16146105b957600080fd5b60006001430340905060008160405160200180828152602001915050604051602081830303815290604052805190602001209050600280805490508260001c816105ff57fe5b068154811061060a57fe5b9060005260206000200160009054906101000a900473ffffffffffffffffffffffffffffffffffffffff16600160006101000a81548173ffffffffffffffffffffffffffffffffffffffff021916908373ffffffffffffffffffffffffffffffffffffffff1602179055505050565b600960019054906101000a900460ff1681565b600160009054906101000a900473ffffffffffffffffffffffffffffffffffffffff1681565b6106bb3461089d565b6106c457600080fd5b60045442106106d257600080fd5b60055460076000828254019250508190555060023390806001815401808255809150509060018203906000526020600020016000909192909190916101000a81548173ffffffffffffffffffffffffffffffffffffffff021916908373ffffffffffffffffffffffffffffffffffffffff16021790555050565b6000809054906101000a900473ffffffffffffffffffffffffffffffffffffffff1673ffffffffffffffffffffffffffffffffffffffff163373ffffffffffffffffffffffffffffffffffffffff16146107a557600080fd5b600073ffffffffffffffffffffffffffffffffffffffff168173ffffffffffffffffffffffffffffffffffffffff1614156107df57600080fd5b8073ffffffffffffffffffffffffffffffffffffffff166000809054906101000a900473ffffffffffffffffffffffffffffffffffffffff1673ffffffffffffffffffffffffffffffffffffffff167f8be0079c531659141344cd1fd0a4f28419497f9722a3daafe3b4186f6b6457e060405160405180910390a3806000806101000a81548173ffffffffffffffffffffffffffffffffffffffff021916908373ffffffffffffffffffffffffffffffffffffffff16021790555050565b600080826005541490506000808414159050600060035442101580156108c557506004544211155b90508180156108d15750825b80156108da5750805b935050505091905056fea265627a7a7231582091e9c174a8ebe49512a3907bb5c45f01ee81c16556c25fe09a7e1a918dce16d364736f6c63430005100032",
  "source": "// SPDX-License-Identifier: MIT\npragma solidity ^0.5.16;\n\nimport \"../owner/Ownable.sol\";\n\ninterface TxUserWallet {\n    function transferTo(address payable dest, uint amount) external;\n}\n\ncontract funding is Ownable  {\n    address public winner;                                        // 당첨자 \n    address[] public participantAddress;                          // 펀딩한 사람의 주소 \n    uint256 public startTime;                                     // 펀딩 시작 \n    uint256 public endTime;                                       // 펀디 끝                        \n    uint256 public fundingAmount;                                 // 펀딩 금액\n    uint256 public fundingGoal;                                   // 목표 값                        \n                            \n    uint256 public investmentReceived;                            // 펀딩 등록 \n    uint256 public investmentRefunded;                            // 환불\n    \n    bool public isFinalized;                                      // 펀딩 Status\n    bool public isRefundingAllowed;                               // 환급 가능 상태 확인\n\n    event LogInvestment(address indexed investor, uint256 value);\n    event Refund(address investor, uint256 value);\n\n    mapping (address => uint256) participantMapper;\n    // 펀딩에 관련된 Data\n    constructor(uint256 _startTime, uint256 _endTime, \n    \tuint256 _fundingAmount, uint256 _fundingGoal) \n    \tpayable public\n    {\n        require(_startTime >= now);\n        require(_endTime >= _startTime);\n        require(_fundingAmount != 0);\n        require(_fundingGoal != 0);\n    \t\n        startTime = _startTime;\n        endTime = _endTime;\n        fundingAmount = _fundingAmount;\n        fundingGoal = _fundingGoal;\n\n        isFinalized = false;\n    }\n    \n\n    \n    function invest() public payable {\n        require(isValidInvestment(msg.value));\n        require(now < endTime);\n \n        investmentReceived += fundingAmount; \n\n        participantAddress.push(msg.sender);\n    }\n\n    function isValidInvestment(uint256 _investment) \n        internal view returns (bool) {\n        bool isInvestmenPrice = fundingAmount == _investment;   \n        bool nonZeroInvestment = _investment != 0;\n        bool withinCrowdsalePeriod = now >= startTime && now <= endTime; \n    \t\t\n        return nonZeroInvestment && isInvestmenPrice && withinCrowdsalePeriod;\n    }\n    \n    function finalize() onlyOwner public {\n        if (isFinalized) revert();\n    \n        bool isCrowdsaleComplete = now > endTime; \n        bool investmentObjectiveMet = investmentReceived >= fundingGoal;\n            \n        if (isCrowdsaleComplete)\n        {     \n            if (investmentObjectiveMet)\n                // crowdsaleToken.release();\n                // NFT 보내주는 FUNCTION 추가\n                // function transform (address winner)  {\n                    \n                // }\n            // else \n                // isRefundingAllowed = true;\n                // refund method 쓸수도 있음\n                // mapping의 key를 전부 가져오고 전부 for 문을 사용하여 refund 진행\n    \n            isFinalized = true;\n        }               \n    }\n    \n/*\n    function refund() public {\n        \n        if (!isRefundingAllowed) revert();\n    \n        address payable investor = msg.sender;\n        uint256 investment = participantMapper[investor];\n        if (investment == 0) revert();\n        participantMapper[investor] = 0;\n        investmentRefunded += investment;\n        emit Refund(msg.sender, investment);\n\n        // require (!investor.transfer(investment));\n    \n        // if (!TxUserWallet(investor).transferTo(investor, investment)) revert();\n    }\n\n    function refund(address _participant) internal {\n        \n        if (!isRefundingAllowed) revert();\n    \n        address investor = _participant;\n        uint256 investment = participantMapper[investor];\n        if (investment == 0) revert();\n        // investmentAmountOf[investor] = 0;\n        investmentRefunded += investment;\n        emit Refund(_participant, investment);\n\n        // require (!investor.transfer(investment));\n    \n        // if (!investor.send(investment)) revert();\n    }\n*/\n    function drawWinner() public {                     //당첨자 추첨\n        require(now > endTime + 5 minutes);\n        require(winner == address(0));                 //아직 당첨자 추첨이 진행되지 않은 것을 검증하기 위해 require()문으로 당첨자의 주소는 0으로 설정\n\n        bytes32 hash = blockhash(block.number-1);    \n        bytes32 rand = keccak256(abi.encode(hash));    //최근 블록 해시를 해시하여 임의의 바이트 열 생성\n\n        // 1. for문 사용 \n        // 2. rend 값을 참가자 수로 나눈 나머지 값을 funding 변수 인덱스로 사용\n        \n        winner = participantAddress[uint(rand) % participantAddress.length];\n    }      \n\n\n}",
  "sourcePath": "/Users/mina/Desktop/Project/Raffle/contracts/funding/funding.sol",
  "compiler": {
    "name": "solc",
    "version": "0.5.16+commit.9c3226ce.Emscripten.clang"
  },
  "schemaVersion": "3.4.3",
  "updatedAt": "2021-12-15T15:54:27.008Z",
  "devdoc": {
    "methods": {
      "transferOwnership(address)": {
        "details": "Allows the current owner to transfer control of the contract to a newOwner.",
        "params": {
          "newOwner": "The address to transfer ownership to."
        }
      }
    }
  },
  "userdoc": {
    "methods": {}
  }
}